:020000040800F2
:1000000038570020C51C0008590D00085B0D00087A
:100010005F0D0008630D0008670D00080000000078
:100020000000000000000000000000006B0D000850
:100030006D0D0008000000006F0D0008710D000834
:10004000DF1C0008DF1C0008DF1C0008DF1C0008A4
:10005000DF1C0008DF1C0008DF1C0008DF1C000894
:10006000DF1C0008DF1C0008DF1C0008DF1C000884
:10007000DF1C0008DF1C0008DF1C0008DF1C000874
:10008000DF1C0008DF1C0008DF1C0008DF1C000864
:10009000DF1C0008DF1C0008DF1C0008DF1C000854
:1000A000DF1C0008DF1C0008DF1C0008DF1C000844
:1000B000DF1C0008C5180008DF1C0008DF1C000852
:1000C000DF1C0008DF1C0008DF1C0008DF1C000824
:1000D000DF1C0008391C0008DF1C0008DF1C0008BA
:1000E000DF1C0008DF1C0008DF1C0008DF1C000804
:1000F000DF1C0008DF1C0008DF1C0008DF1C0008F4
:10010000DF1C0008DF1C0008DF1C0008DF1C0008E3
:10011000DF1C0008DF1C0008DF1C0008DF1C0008D3
:10012000DF1C0008DF1C0008DF1C0008DF1C0008C3
:1001300000F002F800F05AF80AA090E8000C82449F
:100140008344AAF10107DA4501D100F04FF8AFF27C
:10015000090EBAE80F0013F0010F18BFFB1A43F0A5
:1001600001031847C8430000E84300000A444FF069
:10017000000C10F8013B13F0070408BF10F8014B06
:100180001D1108BF10F8015B641E05D010F8016B4B
:10019000641E01F8016BF9D113F0080F1EBF10F8AF
:1001A000014BAD1C0C1B09D16D1E58BF01F801CBD2
:1001B000FAD505E014F8016B01F8016B6D1EF9D555
:1001C0009142D6D37047000000230024002500266A
:1001D000103A28BF78C1FBD8520728BF30C148BFAA
:1001E0000B6070471FB51FBD10B510BD03F08FFA2F
:1001F0001146FFF7F7FF00F0A0FC03F0ADFA03B4DF
:10020000FFF7F2FF03BC01F0BDFC0000F8B50546A6
:100210000F4614461E46142C10DD3346FEA2394606
:10022000284601F035F9A4F1140205F10801C8B21D
:1002300002233946009601F0E7F81AE0142C06D1A3
:100240003346F6A23946284601F022F911E0142C73
:100250000FDA3346F2A23946284601F019F9C4F103
:10026000140205F10801C8B202233946009601F0D4
:10027000CBF8F8BD08B5EB480078012829D1EA4849
:100280000078022804D1E9480068401CE74908606A
:10029000E5480078032804D1E4480068401EE3499B
:1002A0000860E2480068632803DD6320DF490860D6
:1002B00006E0DE480068002802DA0020DB4908601A
:1002C000102002230090D94800210268602001F02C
:1002D0009BF8D448007802282CD1D3480078022813
:1002E00004D1D3480068401CD1490860CE4800784A
:1002F000032804D1CE480068401ECD490860CC4890
:100300000068282803DD2820C94908600BE0C84898
:100310000068002803DA0020C549086003E0C448EB
:100320000068C3490860C2480278102302210020F7
:10033000FFF76CFFBB48007803282CD1BA4800783F
:10034000022804D1BB480068401CBA490860B6487E
:100350000078032804D1B7480068401EB5490860FA
:10036000B4480068282803DD2820B24908600BE063
:10037000B0480068002803DA0020AE49086003E0B6
:10038000AC480068AB490860AA48027810230221F3
:100390002820FFF73BFFA348007804282ED1A2486D
:1003A0000078022804D1A4480068401CA2490860D3
:1003B0009D480078032804D19F480068401E9E494C
:1003C00008609D480068632803DD63209A4908603F
:1003D0000BE099480068002803DA0020964908607D
:1003E00003E09548006894490860102002230090BB
:1003F000914819460268502001F006F889480078B3
:1004000005282ED188480078022804D18B4800683E
:10041000401C8A49086084480078032804D1874832
:100420000068401E8549086084480068632803DD31
:100430006320824908600BE080480068002803DAE6
:1004400000207E49086003E07C4800687B49086022
:10045000102002230090794819460268682000F0B5
:10046000D3FF7048007806282CD16F480078022806
:1004700004D173480068401C714908606A480078DC
:10048000032804D16E480068401E6D4908606C481E
:100490000068282803DD2820694908600BE06848C7
:1004A0000068002803DA00206549086003E064481A
:1004B0000068634908606248027810230421002024
:1004C000FFF7A4FE5748007807282CD1564800783B
:1004D000022804D15B480068401C5A490860524811
:1004E0000078032804D157480068401E5549086029
:1004F00054480068282803DD2820524908600BE092
:1005000050480068002803DA00204E49086003E0E4
:100510004C4800684B4908604A480278102304217F
:100520002820FFF773FE3F48007808282ED13E4868
:100530000078022804D144480068401C4249086001
:1005400039480078032804D13F480068401E3E49DE
:1005500008603D480068632803DD63203A4908606D
:100560000BE039480068002803DA002036490860AB
:1005700003E03548006834490860102002230090E9
:10058000314804210268502000F03EFF25480078E1
:1005900009282ED124480078022804D12B4800686D
:1005A000401C2A49086020480078032804D12748C5
:1005B0000068401E2549086024480068632803DD60
:1005C0006320224908600BE020480068002803DA15
:1005D00000201E49086003E01C4800681B490860B1
:1005E000102002230090194804210268682000F0BE
:1005F0000BFF0C4800780A284BD10B4800780228E2
:1006000004D113480068401C11490860064800786E
:10061000032823D10E481DE02B00000020203000CD
:100620002D00000015000020140000200000002014
:10063000180000201C000020300000203C0000209A
:100640002000002024000020340000204000002072
:10065000280000200068401EF7490860F64800683E
:10066000282803DD2820F44908600BE0F2480068E0
:10067000002803DA0020F049086003E0EE48006833
:10068000ED490860EC480278102306210020FFF7AE
:10069000BDFDEA4800780B282CD1E94800780228F3
:1006A00004D1E8480068401CE6490860E448007846
:1006B000032804D1E3480068401EE2490860E1488D
:1006C0000068282803DD2820DE4908600BE0DD48AB
:1006D0000068002803DA0020DA49086003E0D948FE
:1006E0000068D8490860D7480278102306212820DE
:1006F000FFF78CFDD14800780C282ED1D048007827
:10070000022804D1D0480068401CCF490860CC487A
:100710000078032804D1CC480068401ECA4908600C
:10072000C9480068632803DD6320C84908600BE0FE
:10073000C5480068002803DA0020C349086003E0C8
:10074000C1480068C0490860102002230090BE48DC
:1007500006210268502000F057FEB84800780D28A6
:100760002ED1B7480078022804D1B9480068401C4F
:10077000B7490860B2480078032804D1B44800683B
:10078000401EB3490860B2480068632803DD632057
:10079000AF4908600BE0AE480068002803DA00208B
:1007A000AB49086003E0AA480068A9490860102026
:1007B00002230090A64806210268682000F024FE6B
:1007C00008BD10B59D480078012806D110232022CD
:1007D0000021682000F0C0FD82E0984800780228DF
:1007E00006D1102320220221184600F0B5FD77E043
:1007F00092480078032806D11023202202213820B5
:1008000000F0AAFD6CE08D480078042806D1102382
:1008100020220221582000F09FFD61E087480078E7
:10082000052806D1102320220221702000F094FD1B
:1008300056E082480078062806D1102320220421A1
:10084000184600F089FD4BE07C480078072806D167
:10085000102320220421382000F07EFD40E077485C
:100860000078082806D1102320220421582000F007
:1008700073FD35E071480078092806D11023202245
:100880000421702000F068FD2AE06C4800780A28F6
:1008900006D1102320220621184600F05DFD1FE03E
:1008A000664800780B2806D1102320220621382024
:1008B00000F052FD14E0614800780C2806D11023A6
:1008C00020220621582000F047FD09E05B4800780F
:1008D0000D2805D1102320220621702000F03CFDB8
:1008E00010BD08B51020022300905A48002102686C
:1008F000602000F089FD5848027810230221002072
:10090000FFF784FC55480278102302212820FFF7C6
:100910007DFC1020022300904C48194602685020AC
:1009200000F072FD1020022300904D481946026825
:10093000682000F069FD4B48027810230421002054
:10094000FFF764FC48480278102304212820FFF7B1
:100950005DFC1020022300904448042102685020CE
:1009600000F052FD1020022300904148042102684B
:10097000682000F049FD304802781023062100204D
:10098000FFF744FC2F480278102306212820FFF7A8
:100990003DFC1020022300902B48062102685020C5
:1009A00000F032FD10200223009029480621026841
:1009B000682000F029FD08BD2DE9F84F04460D46DA
:1009C0000021002032E004EB00173F6807F1140813
:1009D00004EB00177F6807F1140904EB0017BE68E9
:1009E00004EB0017FF68009700271AE04FF0000C97
:1009F00007E008F0FF0B8A46491C42F82AB00CF1C8
:100A0000010CB445F5DB4FF0000C07E009F0FF0BDB
:100A10008A46491C42F82AB00CF1010CB445F5DBBA
:100A20007F1CDDF800C06745E0DB401CA842CADB44
:100A30001960BDE8F88F0000280000201500002094
:100A4000140000202C00002038000020300000207E
:100A50004400002000000020180000201C0000209E
:100A60003C00002020000020240000203400002052
:100A70004000002010B500209C4908609C48006898
:100A800014389C4908609C480068143848609B48AA
:100A90000068143808619A48006814384861994819
:100AA000006814380862984800681438486297480B
:100AB00000688860964801688E48816195480168A1
:100AC0008C488162944800688A49C86093480168EC
:100AD0008848C161924801688648C1620A209149EC
:100AE0000860914B914A084601688248FFF764FF0D
:100AF0008E497E4A126851F8220000F096FF0021CC
:100B00008B4802F01DF90021894802F019FA894842
:100B1000008800EB8000401E81B2854802F0A6FBF1
:100B20000121834802F00CFA0021814802F09CFB6D
:100B300001217F4802F004F910BD00F0B9FF4FF425
:100B4000A06001F0DFF84FF4E13001F029F800F087
:100B50005FFA00F0FFF900F005FE642000F0E5FF09
:100B60000021022000F09CFD7249098801EB8101FF
:100B7000491E88B243F63F0100F04EFE00216C484A
:100B800002F0DEF800F0E4FC00F0A8FB642000F0C6
:100B9000CCFF47F6FF71084600F000FE642000F02D
:100BA000C4FF00F007FA1023634A0021084600F052
:100BB0006FFC1023614A0221002000F069FC102321
:100BC0005F4A0421002000F063FC10235D4A0621E7
:100BD000002000F05DFC474800681430444908607C
:100BE0004448406814304449086042480069143061
:100BF000424908603F4840691430414908603D4817
:100C0000006A14303F4908603A48406A14303E494F
:100C10000860384880683D490860364880693C492A
:100C200008603448806A3B4908603248C0683A49E5
:100C300008603048C069394908602E48C06A3849A0
:100C40000860FFF74EFE0A2036490860364B374AE7
:100C5000084601682748FFF7AFFE00203A490860C0
:100C600036E0002000F0E5F93849087008460078C1
:100C700001280DD100203449086035480078401C17
:100C800033490870084600780D2801DD01200870FE
:100C90002E48007804280CD12B480068C0432A490C
:100CA00008600846006810B101202A490860FFF773
:100CB00018FE2848006838B1002026490860FFF770
:100CC000D9FEFFF70EFE01E0FFF77BFDFFF7D2FA3A
:100CD000C7E710B500200549086047F6FF7000F02F
:100CE00073FD0021124802F02BF810BD48000020CF
:100CF00018000020C40000201C000020200000205C
:100D000024000020280000202C00002030000020BB
:100D100034000020380000203C000020400000206B
:100D2000440000206401002004000020BC010020D9
:100D300000040040000000208000002091000020FE
:100D4000A2000020B30000200C00002014000020AE
:100D50001500002010000020704700BFFEE700BF14
:100D6000FEE700BFFEE700BFFEE770477047704731
:100D7000704700000CB50020019000906C4800689E
:100D800040F480306A49086000BF6948006800F498
:100D9000003000900198401C0190009818B901980B
:100DA000B0F5A06FF1D16248006800F4003010B1D6
:100DB0000120009001E0002000900098012843D11C
:100DC0005C48006840F010005A4908600846006816
:100DD00020F0030008600846006840F00200086048
:100DE0005348406852494860084640684860084691
:100DF000406840F4806048600846406820F47C10F9
:100E000048600846406840F4E810486008460068BA
:100E100040F08070086000BF4548006800F0007036
:100E20000028F9D04248406820F00300404948605B
:100E30000846406840F00200486000BF3C484068F7
:100E400000F00C000828F9D10CBD10B5FFF792FF97
:100E500010BD10B53648006840F001003449086004
:100E600008464068344908403149486008460068EF
:100E7000324908402E4908600846006820F4802066
:100E800008600846406820F4FE0048604FF41F00E8
:100E90008860FFF7DAFF4FF000602949086010BD55
:100EA00010B5002100200022214B5B6803F00C01EB
:100EB00021B1042906D0082928D107E0214B224C72
:100EC000236027E01F4B204C236023E0184B5B6816
:100ED00003F47010164B5B6803F48032022303EBBB
:100EE000904022B9194B4343174C23600DE0104B3F
:100EF0005B6803F4003323B1144B4343124C23606B
:100F000003E0104B4343104C236003E00D4B0E4CA9
:100F1000236000BF00BF064B5B68C3F303130C4C98
:100F2000E15C094B1B68CB40074C236010BD0000FF
:100F300000100240002002400000FFF8FFFFF6FE14
:100F400008ED00E000127A006801002000093D0071
:100F50006C01002008B50121102001F05DFA10207D
:100F6000ADF800008DF8030003208DF802006946FB
:100F7000264800F095FF1021244801F03EF820207B
:100F8000ADF800006946214800F08AFF20211F4883
:100F900001F033F808BD70B505460E46144624B17D
:100FA0003146284601F029F803E03146284601F091
:100FB00026F870BD10B51021144801F020F820214A
:100FC000124801F01CF8322000F0AFFD10210F484C
:100FD00001F013F820210D4801F00FF8322000F045
:100FE000A4FD1021094801F00AF82021074801F06A
:100FF00006F8322000F099FD1021044800F0FDFFB2
:101000002021024800F0F9FF10BD0000001001404F
:1010100008B50121082001F0FFF94FF4EC70ADF89C
:10102000000048208DF803006946314800F038FF81
:1010300008BD10B5044614B101202E4908702D4892
:101040000078002837D04021294800F0BCFF78B153
:101050008021274800F0B7FF50B14FF48071244839
:1010600000F0B1FF20B11021214800F0ACFF10BB0F
:101070000A2000F05AFD00201E49087040211C483B
:1010800000F0A1FF08B9012010BD8021184800F030
:101090009AFF08B90220F7E74FF48071144800F076
:1010A00092FF08B90320EFE71021114800F08BFFF1
:1010B000D8B90420E8E740210D4800F084FF01285A
:1010C00013D180210A4800F07EFF01280DD10102D2
:1010D000074800F078FF012807D11021044800F0EC
:1010E00072FF012801D1034908700020CCE70000FD
:1010F000000C01409801002010B54021FE4800F08E
:101100007CFF8021FC4800F078FF8021FA4800F045
:1011100076FF4021F84800F072FF10BD10B5402165
:10112000F54800F06AFF8021F34800F068FF802155
:10113000F14800F062FF10BD10B54021EE4800F00C
:101140005CFF4021EC4800F05AFF10BD2DE9F04152
:1011500005462C464021E84800F051FF002619E0E2
:10116000274607F08007802F04D18021E24800F055
:1011700044FF03E08021E04800F041FF6006040ED8
:101180004021DD4800F039FF4021DB4800F037FF07
:10119000701CC6B2082EE3DBBDE8F08110B5044632
:1011A000FFF7AAFF7820FFF7D1FFFFF7C5FF002068
:1011B000FFF7CCFFFFF7C0FF2046FFF7C7FFFFF7A1
:1011C000BBFFFFF7ABFF10BD10B50446FFF794FF60
:1011D0007820FFF7BBFFFFF7AFFF4020FFF7B6FF18
:1011E000FFF7AAFF2046FFF7B1FFFFF7A5FFFFF7C4
:1011F00095FF10BD70B504460D461DB1E0B2FFF776
:10120000E3FF02E0E0B2FFF7C9FF70BD70B506462C
:10121000002418E004F1B0000021FFF7EBFF0021EB
:101220000846FFF7E7FF00211020FFF7E3FF002546
:1012300005E001213046FFF7DDFF681CC5B2802DB7
:10124000F7DB601CC4B2082CE4DB70BD06E041F69D
:10125000650100E0491E0029FCD1401E0028F6D19E
:101260007047014605E0002001E0421CD0B27B2817
:10127000FBDB0A00A1F10101F5D1704770B504460E
:101280000D4605F1B0000021FFF7B4FF102141EA3F
:1012900014100021FFF7AEFF04F00F000021FFF74C
:1012A000A9FF70BD10B500218D20FFF7A3FF00211D
:1012B0001420FFF79FFF0021AF20FFF79BFF10BD19
:1012C00010B500218D20FFF795FF00211020FFF7BA
:1012D00091FF0021AE20FFF78DFF10BD70B50024F7
:1012E00018E004F1B0000021FFF784FF0021084658
:1012F000FFF780FF00211020FFF77CFF002505E0AD
:1013000001210020FFF776FF681CC5B2802DF7DBB6
:10131000601CC4B2082CE4DB70BD70B5002418E07A
:1013200004F1B0000021FFF765FF00210846FFF738
:1013300061FF00211020FFF75DFF002505E001217E
:101340000846FFF757FF681CC5B2802DF7DB601C0D
:10135000C4B2082CE4DB70BD2DE9F04707460E4609
:101360009046994600250024A8F12000C5B27F2FA1
:1013700002DD0027B01CC6B2B9F1100F24D13146EE
:101380003846FFF77BFF002408E004EB05115B4AB9
:10139000505C0121FFF72EFF601CC4B2082CF4DB67
:1013A000701CC1B23846FFF769FF002409E004EB66
:1013B00005110831514A505C0121FFF71BFF601CE9
:1013C000C4B2082CF3DB12E031463846FFF756FF73
:1013D00000240AE005EB4501494A02EB4101085DA2
:1013E0000121FFF707FF601CC4B2062CF2DBBDE849
:1013F000F08710B50246012000E050430B00A1F138
:101400000104E1B2F9D110BD2DE9FF5F0746914615
:101410001E460E9D4FF0000A002435E0301B401E92
:10142000C1B20A20FFF7E5FFB9FBF0F00A21B0FBDB
:10143000F1F201FB1208BAF1000F14D1701EA042A4
:1014400011DDB8F1000F0CD1AB4605EBDB71491093
:1014500001FB0471C8B22B4620220199FFF77CFFE3
:1014600010E04FF0010AAB4605EBDB71491001FBC0
:101470000471C8B208F13001CAB22B460199FFF7D6
:101480006BFF00BF601CC4B2B442C7DBBDE8FF9F66
:101490002DE9F04104460F461546984600260FE018
:1014A000AA5D434639462046FFF756FF04F108007F
:1014B000C4B2782C02DD0024B81CC7B2701CC6B2BE
:1014C000A85D0028ECD1BDE8F0812DE9F05F06466B
:1014D0000F4690461C46DDF828A04FF0000BE117A0
:1014E00004EB5171C910A4EBC10171B92046E11799
:1014F00004EB517106E00000000801403C3F000889
:10150000143D0008C1F3C70506E02046E11704EBCF
:101510005171C910491CCDB23D4615E029463046EF
:10152000FFF7ACFEB1460BE059460BF1010B1AF880
:1015300001000121FFF75EFE09F1010000F0FF0943
:10154000C145F1DB681CC5B2A542E7DBBDE8F09FF1
:1015500008B50121042000F05FFFC020ADF80000B5
:1015600010208DF8030003208DF8020069463D48E5
:1015700000F096FCC0213B4800F03FFD4FF448705E
:1015800000F0D3FA0021AE20FFF734FE0021084618
:10159000FFF730FE00211020FFF72CFE0021402035
:1015A000FFF728FE0021B020FFF724FE0021812054
:1015B000FFF720FE0021FF20FFF71CFE0021A120E5
:1015C000FFF718FE0021A620FFF714FE0021A82037
:1015D000FFF710FE00213F20FFF70CFE0021C8207E
:1015E000FFF708FE0021D320FFF704FE0021084684
:1015F000FFF700FE0021D520FFF7FCFD0021802031
:10160000FFF7F8FD0021D820FFF7F4FD00210520A9
:10161000FFF7F0FD0021D920FFF7ECFD0021F120BC
:10162000FFF7E8FD0021DA20FFF7E4FD002112209A
:10163000FFF7E0FD0021DB20FFF7DCFD002130207B
:10164000FFF7D8FD00218D20FFF7D4FD00211420E5
:10165000FFF7D0FD0021AF20FFF7CCFDFFF73EFEE6
:1016600008BD00000008014008B50121102000F06D
:10167000D3FE4FF47C50ADF8000010208DF803002D
:1016800003208DF802006946604800F009FC4FF421
:1016900000515E4800F0B3FC01205D49086008BDC0
:1016A00070B505460E4600240120594908310860EE
:1016B000042000F016FA00205649C1F8AC01544944
:1016C0000C31086000BF21E005F08000802804D1C3
:1016D00001204F49091F086003E000204C49091F01
:1016E0000860042000F0FDF9012049490C31086030
:1016F000042000F0F6F96806050E00204549C1F8FF
:10170000B001042000F0EDF9601CC4B2082CDBDB52
:10171000002424E006F40040B0F5004F04D101207D
:101720003B49091F086003E000203949091F086090
:10173000042000F0D6F9012035490C31086004205E
:1017400000F0CFF94FF6FF7000EA4606002031495D
:10175000C1F8B001042000F0C4F9601CC4B2102C20
:10176000D8DB70BD10B500202949091D0860012093
:101770002849C1F8A401FFF777FF01212820FFF7CE
:101780008FFF03212020FFF78BFF01213820FFF777
:1017900087FF01210220FFF783FF10BD70B50446CB
:1017A0000D4621461820FFF77BFF29461920FFF739
:1017B00077FF002016490860042000F092F901200C
:1017C0001449C1F8A40170BD10B504462146182083
:1017D000FFF766FF00200E490860042000F081F941
:1017E00001200C49C1F8A40110BD10B504462146E2
:1017F0001920FFF755FF002005490860042000F07C
:1018000070F901200349C1F8A40110BD0010014086
:10181000A4012242000022427FB505460C46012168
:10182000022000F006FEADF80850ADF8044000209C
:10183000ADF80A00ADF8060001A9914800F024FFB8
:1018400001218F4801F07CFB01218D4801F052FD00
:10185000012211468A4801F08EFA1D208DF8000001
:1018600000208DF8010001208DF802008DF80300A2
:10187000684600F04CFA0121814801F061FA7FBD11
:101880002DE9F05F8246BAF1000F04D147F6FF70F0
:10189000FFF79AFF14E0504602F03DF88046794A7F
:1018A000794B02F04FF806460022784B02F048F9D7
:1018B000044602F003F81FFA80FB5846FFF784FF46
:1018C000BDE8F09F70B501216D4801F002FD0028D0
:1018D00065D06F486F49096850F821406D4800682D
:1018E000401E6B4951F820506A4800686A490968EF
:1018F000884220DAAC4211D06848006808B901205B
:1019000000E00020654908606548D0F8940108B9F6
:10191000012000E000206149091D08605C495D4A22
:10192000126851F82200FFF7ABFF5A480068401CCC
:101930005849086022E058490968491E544A52F83B
:101940002100FFF79DFF00214D4801F0F9F900212A
:101950004B4801F089FC1021524800F04EFB202139
:10196000504800F04AFB4B480068401C4949086059
:101970004D48006810B101204C49086000214048E2
:1019800001F0DEF900213E4801F06EFC01213C48E7
:1019900001F0D6F901213A4801F0ACFC00BF70BD5E
:1019A00070B505460C460021284601F0C9FA04EB43
:1019B000C40000EB04100122C2EB400081B22846B3
:1019C00001F054FC0121284601F0BAFA0021284612
:1019D00001F04AFC70BD2DE9F05F8246BAF1000FBC
:1019E00004D147F6FF70FFF7EFFE14E0504601F018
:1019F00092FF8046234A244B01F0A4FF06460022B2
:101A0000224B02F09DF8044601F058FF1FFA80FBBC
:101A10005846FFF7D9FE1021224800F0F0FA2021A5
:101A2000204800F0EAFABDE8F09F2DE9F05F824619
:101A3000BAF1000F04D147F6FF70FFF7C5FE14E0BE
:101A4000504601F068FF80460E4A0F4B01F07AFFC6
:101A5000064600220D4B02F073F8044601F02EFFFB
:101A60001FFA80FB5846FFF7AFFE10210D4800F02B
:101A7000C4FA20210B4800F0C2FABDE8F09F000034
:101A8000000400409A999999999999400000F03F73
:101A9000BC010020480000200400002090012242E8
:101AA00000002242001001400C0000201000002025
:101AB00010B56FF0040000F074F92E4800682E494C
:101AC000B0FBF1F02D4908700846007800EB4001AA
:101AD000C1EBC0104FF6FF7101EAC0002849088031
:101AE00010BD0146254A12784A434FF0E0235A615F
:101AF00000229A611A46126942F001021A6100BF7F
:101B00004FF0E022106900F001021AB100F48032B7
:101B1000002AF5D04FF0E022126922F001024FF0C6
:101B2000E0231A6100229A6170470146144A128824
:101B30004A434FF0E0235A6100229A611A46126923
:101B400042F001021A6100BF4FF0E022106900F07C
:101B500001021AB100F48032002AF5D04FF0E022E1
:101B6000126922F001024FF0E0231A6100229A610B
:101B7000704700006801002000127A009A010020DE
:101B80009C01002000BF704700BF4A4A128802F043
:101B90004002002AF9D0C2B2464B1B1D1A80704782
:101BA00010B586B00446012144F2040000F034FC74
:101BB0004FF40070ADF8140003208DF816001820C3
:101BC0008DF8170005A93C4800F06AF94FF48060D1
:101BD000ADF8140004208DF8170005A9364800F070
:101BE0005FF925208DF8000003208DF801008DF8A5
:101BF000020001208DF80300684600F088F8019487
:101C00000020ADF80800ADF80A00ADF80C00ADF802
:101C100010000C20ADF80E0001A9264801F0B1FB20
:101C2000012240F22551234801F043FC01212148C3
:101C300001F033FC06B010BD10B540F225511D482F
:101C400001F01CFD10B31B4801F098FCC4B21B4806
:101C5000008800F40040C8B91848008800F48040AB
:101C600060B10A2C03D000201449088020E01348FA
:101C7000008840F400401149088019E00D2C06D17D
:101C80000E48008840F480400C49088010E00B4862
:101C90000088C0F30D000A490C5408480088401C15
:101CA0000649088008460088C72801DD0020088012
:101CB00010BD00000038014000080140A4010020D0
:101CC0000A5000200948804709480047FEE7FEE720
:101CD000FEE7FEE7FEE7FEE7FEE7FEE7FEE7FEE7DC
:101CE00004480549054A064B70470000530E00089A
:101CF00031010008385100203857002038530020A7
:101D00003853002031490143314A1160704770B5A2
:101D1000002100230F22C47804B32D4C246804F45E
:101D2000E064C4F5E064210AC1F10403CA404478C8
:101D300004FA03F18478144021430901254C067804
:101D4000A155047804F01F050124AC4005786D11FD
:101D5000AD0005F1E025C5F8004109E0047804F084
:101D60001F050124AC401C4D0678761145F826402D
:101D700070BD1A4A0A400243154B1B1F1A60704778
:101D800039B1134A121D12680243114B1B1D1A6010
:101D900006E00F4A121D126882430D4B1B1D1A608C
:101DA0007047042808D14FF0E021096941F004018F
:101DB0004FF0E022116107E04FF0E021096921F0C6
:101DC00004014FF0E0221161704700000000FA05A5
:101DD0000CED00E000E400E080E100E080FFFF1F88
:101DE00010B50446CC48844208D10121042000F0FB
:101DF0002DFB0021042000F029FB46E0C748844267
:101E000008D10121082000F021FB0021082000F06A
:101E10001DFB3AE0C248844208D10121102000F0A5
:101E200015FB0021102000F011FB2EE0BD4884427C
:101E300008D10121202000F009FB0021202000F022
:101E400005FB22E0B848844208D10121402000F07F
:101E5000FDFA0021402000F0F9FA16E0B348844270
:101E600008D10121802000F0F1FA0021802000F04B
:101E7000EDFA0AE0AE48844207D10121801500F056
:101E8000E5FA0021A01500F0E1FA10BD10B501211E
:101E9000084600F0DBFA0021012000F0D7FA10BD5F
:101EA0002DE9F041024600250026002000230024F1
:101EB000002791F803C00CF00F0591F803C00CF057
:101EC000100CBCF1000F03D091F802C04CEA0505DC
:101ED00091F800C0BCF1000F31D0146800202BE055
:101EE0004FF0010C0CFA00F3B1F800C00CEA030645
:101EF0009E4220D183004FF00F0C0CFA03F7BC4335
:101F000005FA03FC4CEA040491F803C0BCF1280F65
:101F100006D14FF0010C0CFA00FCC2F814C00AE024
:101F200091F803C0BCF1480F05D14FF0010C0CFA39
:101F300000FCC2F810C0401C0828D1D31460B1F8CE
:101F400000C0BCF1FF0F34DD546800202EE000F12A
:101F5000080C4FF0010808FA0CF3B1F800C00CEAC5
:101F600003069E4221D183004FF00F0C0CFA03F7B9
:101F7000BC4305FA03FC4CEA040491F803C0BCF12D
:101F8000280F05D100F1080C08FA0CF8C2F81480EB
:101F900091F803C0BCF1480F07D100F1080C4FF0D5
:101FA000010808FA0CF8C2F81080401C0828CED3AB
:101FB0005460BDE8F0814FF6FF710180022181700D
:101FC0000421C17070470246002093680B400BB19A
:101FD000012000E0002070470146886880B2704709
:101FE00002460020D3680B400BB1012000E0002026
:101FF00070470146C86880B270470161704741610F
:1020000070470AB1016100E041617047C1607047EB
:102010004FF480320A438261816182618269826900
:10202000704702460020434B18684FF680731840F3
:1020300040EA021008433F4B186070473E49C861B0
:102040007047F0B50A46002300240021002500F067
:102050000046B6F1004F02D1364EF16901E0354E2F
:102060007168C0F3034583B200F44016B6F5401F13
:1020700008D121F070612F4E766826F070662D4FE2
:102080007E6012E000F48016B6F5801F06D10326AC
:1020900006FA05F4A14341F0706106E0460D3601F1
:1020A00003FA06F6B14341F0706122B1460D3601E4
:1020B00003FA06F6314300F00046B6F1004F02D1B4
:1020C0001C4EF16101E01B4E7160F0BD30B5002285
:1020D0008B071C0F0F2303FA04F2164B08338C10E6
:1020E00053F824309343134C08348D1044F82530B2
:1020F00023468C1053F824308C07240F00FA04F484
:1021000023430C4C08348D1044F8253030BD0A4967
:10211000DC3108607047000000080140000C0140FD
:10212000001001400014014000180140001C014053
:10213000002001400000014000002042DF4800680C
:1021400040F00100DD49086008464068DC4908406D
:10215000DA49486008460068DA490840D74908600B
:102160000846006820F4802008600846406820F493
:10217000FE0048604FF41F0088607047CF4909682F
:1021800021F48031CD4A11601146096821F4802183
:102190001160B0F5803F03D0B0F5802F0ED106E07E
:1021A000C649096841F48031C44A116007E0C34957
:1021B000096841F4A021C14A116000E000BF00BFDE
:1021C000704710B501460022002300204A11012A61
:1021D00002D1BA4C236806E0022A02D1B74C236A26
:1021E00001E0B64C636A01F01F02012494401C40D8
:1021F0000CB1012000E0002010BD38B50020009097
:102200000024002500BF3120FFF7DBFF05460098C2
:10221000401C00900098B0F5A06F01D0002DF2D0C6
:102220003120FFF7CEFF08B1012400E00024204652
:1022300038BD01460020A14A106820F0F80040EAAD
:10224000C10010607047A049086070470246002036
:102250009A4B586820F47C1042EA01031843974BCC
:102260005860704798490866704701460020934AB5
:10227000506820F003000843506070478F48406862
:1022800000F00C007047014600208C4A506820F096
:10229000F00008435060704701460020874A5068AC
:1022A00020F4E06008435060704701460020834AF4
:1022B000506820F4605040EAC1005060704729B176
:1022C0007E4A527A02437D4B5A7204E07B4A527A2C
:1022D00082437A4B5A7270477B49D8310860704705
:1022E00001460020754A506820F440400843506081
:1022F00070470021714A20321170704A82F8201014
:10230000012802D004280AD104E001216B4A2032BE
:10231000117005E00521694A2032117000E000BF0C
:1023200000BF70476949086070476449096A014302
:10233000624A11627047654944390860704730B598
:1023400000210022002400235C4D6D6805F00C0183
:1023500021B1042905D0082923D105E05C4D056091
:1023600022E05B4D05601FE0544D6D6805F470126E
:10237000524D6D6805F48034022505EB92421CB97C
:10238000544D554305600BE04C4D6D6805F4003528
:102390001DB1504D5543056002E04D4D554305605C
:1023A00002E04B4D056000BF00BF444D6D6805F075
:1023B000F0010909484D6B5C0568DD4045603F4D03
:1023C0006D6805F4E061090A434D6B5C4568DD40CA
:1023D00085603A4D6D6805F46051C90A3E4D6B5CED
:1023E0004568DD40C560354D6D6805F44041890B99
:1023F0003A4D6B5CC568B5FBF3F5056130BD29B19D
:102400002E4A526902432D4B5A6104E02B4A52690D
:1024100082432A4B5A61704729B1284A9269024384
:10242000264B9A6104E0254A92698243234B9A61C4
:10243000704729B1214AD2690243204BDA6104E096
:102440001E4AD26982431D4BDA61704729B11B4A8B
:10245000D2680243194BDA6004E0184AD26882431A
:10246000164BDA60704729B1144A12690243134BC4
:102470001A6104E0114A12698243104B1A617047D5
:1024800012494039086070470F49C86470470B49CA
:10249000C87170470948406A40F080700749486237
:1024A000704701460020054A92680A400AB101209F
:1024B00000E0002070470149887270470010024018
:1024C0000000FFF8FFFFF6FE000042428004424297
:1024D00000127A0000093D00A6010020B60100208C
:1024E00010B50446FE48844208D10121C014FFF70C
:1024F000ADFF0021E014FFF7A9FFC4E0B4F1804F65
:1025000008D101210846FFF7AEFF00210120FFF7A7
:10251000AAFFB8E0F348844208D101210220FFF766
:10252000A2FF00210220FFF79EFFACE0EE488442AC
:1025300008D101210420FFF796FF00210420FFF7B6
:1025400092FFA0E0E948844208D101210820FFF76A
:102550008AFF00210820FFF786FF94E0E4488442C8
:1025600008D101211020FFF77EFF00211020FFF786
:102570007AFF88E0DF48844208D101212020FFF75C
:1025800072FF00212020FFF76EFF7CE0DA488442D2
:1025900008D101214014FFF759FF00216014FFF713
:1025A00055FF70E0D548844209D10121C804FFF7E6
:1025B0004DFF00214FF40020FFF748FF63E0D048B3
:1025C000844209D101210805FFF740FF00214FF4A3
:1025D0008010FFF73BFF56E0CA48844209D1012131
:1025E0004805FFF733FF00214FF40010FFF72EFFDF
:1025F00049E0C548844208D101214020FFF733FF5C
:1026000000214020FFF72FFF3DE0C048844208D161
:1026100001218020FFF727FF00218020FFF723FF03
:1026200031E0BB48844208D101218015FFF71BFF30
:102630000021A015FFF717FF25E0B648844209D115
:1026400001210804FFF702FF00214FF48030FFF75B
:10265000FDFE18E0B048844209D101214804FFF78B
:10266000F5FE00214FF40030FFF7F0FE0BE0AB4821
:10267000844208D101218804FFF7E8FE00214FF4CD
:102680008020FFF7E3FE10BD00220288944B9842A1
:102690000ED0994B98420BD0B0F1804F08D0914B9F
:1026A000984205D0904B984202D0904B984204D16A
:1026B0004FF68F731A404B881A438D4B984207D0C0
:1026C0008C4B984204D04FF6FF431A40CB881A43F4
:1026D00002808B8883850B880385814B98420BD0C1
:1026E000854B984208D08B4B984205D08A4B984234
:1026F00002D08A4B984201D10B7A03860123838250
:10270000704770B5002400220023058C4FF6FE763A
:1027100035400584028C8388048B4FF68F752C40DE
:10272000B51E2C400D882C43751E2A400D892A4366
:102730004D882A436A4DA8420BD06F4DA84208D05D
:10274000744DA84205D0744DA84202D0734DA842E2
:1027500013D14FF6F7752A404D892A434FF6FB7582
:102760002A408D882A434FF6FF652B404FF6FF55D0
:102770002B408D892B43CD892B4383800483CD88C7
:102780008586028470BD70B5002400220023058C6C
:102790004FF6EF7635400584028C8388048B48F62B
:1027A000FF752C404FF6FF452C400D884FF6FF7605
:1027B00006EA05252C434FF6DF752A400D8906EA07
:1027C00005152A434D8806EA05152A43444DA842BB
:1027D00002D0494DA8421DD14FF67F752A404D8940
:1027E0004FF6FF7606EA05152A434FF6BF752A40D5
:1027F0008D8806EA05152A434FF6FF352B404FF228
:10280000FF752B408D8906EA85052B43CD8906EAA5
:1028100085052B4383800483CD880587028470BDA2
:1028200070B5002400220023058C4FF6FF6635406A
:102830000584028C8388848B4FF68F752C404FF66D
:10284000FC752C400D882C434FF6FF552A400D890E
:102850004FF6FF7606EA05252A434D8806EA052548
:102860002A431F4DA84202D0234DA8421DD14FF24A
:10287000FF752A404D894FF6FF7606EA05252A4363
:102880004FF6FF352A408D8806EA05252A434EF685
:10289000FF752B404DF6FF752B408D8906EA051517
:1028A0002B43CD8906EA05152B4383808483CD888D
:1028B0008587028470BD70B5002200230024058C3A
:1028C0004EF6FF7635400584038C8488828B48F66B
:1028D000FF752A404FF6FF452A400D8820E0000092
:1028E000002C01400004004000080040000C0040A3
:1028F000001000400014004000340140004C014032
:10290000005001400054014000180040001C0040ED
:1029100000200040004001400044014000480140C8
:102920004FF6FF7606EA05252A434DF6FF752B4044
:102930000D8906EA05352B434D8806EA05352B43FC
:10294000FA4DA84202D0FA4DA84208D14BF6FF75C5
:102950002C408D894FF6FF7606EA85152C4384803E
:102960008283CD88A0F84050038470BD828B4FF2E3
:10297000FF331A408283828B4FF6FF7303EA0123F1
:102980001A4382837047F0B50C4615460022002199
:102990000026078C4EF6FF7C07EA0C070784828B23
:1029A000018C4FF6FF7707EA043640F6FF473A40BE
:1029B0004FF6FF7707EA05273A434FF6FF7707EA16
:1029C00003373A43D94FB8420ED0D94FB8420BD053
:1029D000B0F1804F08D0D74FB84205D0D64FB8429B
:1029E00002D0D64FB84206D14DF6FF77394046F4B3
:1029F0008057394305E047F6FF57394044F4805784
:102A0000394382830184F0BD828B4FF6F3731A4001
:102A10008283828B0A4382837047F0B50C46154649
:102A2000002200210026078C4FF6FF6C07EA0C07F6
:102A30000784828B018C4FF6FF7707EA04264FF656
:102A40000C773A404FF6FF7707EA03172F433A43D4
:102A5000B64FB8420ED0B64FB8420BD0B0F1804F4F
:102A600008D0B44FB84205D0B34FB84202D0B34FEC
:102A7000B84206D14FF6FF57394046F480773943C4
:102A800005E04FF2FF57394044F4807739438283A1
:102A90000184F0BD028B4FF2FF331A400283028B98
:102AA0004FF6FF7303EA01231A4302837047F0B520
:102AB0000C461546002200210026078C4FF6EF7CBD
:102AC00007EA0C070784028B018C4FF6FF7707EAB1
:102AD000041640F6FF473A404FF6FF7707EA033700
:102AE0003A434FF6FF7707EA05273A438F4FB8423C
:102AF0000ED08F4FB8420BD0B0F1804F08D08D4F21
:102B0000B84205D08C4FB84202D08C4FB84206D1A3
:102B10004FF6DF77394046F01007394305E04FF6AE
:102B20005F77394044F01007394302830184F0BDD8
:102B3000028B4FF6F3731A400283028B0A4302831F
:102B40007047F0B50C46154600220021068C4FF662
:102B5000FE773E400684028B018C4FF60C763240A5
:102B60007E1C06EA03162E433243704EB0420ED04E
:102B70006F4EB0420BD0B0F1804F08D06D4EB042D6
:102B800005D06D4EB04202D06C4EB04206D14FF629
:102B9000FD76314044F00106314305E04FF6F5760D
:102BA000314044F00106314302830184F0BD70B529
:102BB00005460C465D4885420ED05D4885420BD0E7
:102BC000B5F1804F08D05B48854205D05A48854210
:102BD00002D05A48854200D100E000BF208850B999
:102BE0002389A28861882846FFF7ABFFE188284641
:102BF000FFF79EFF25E0208804280AD12389A288B8
:102C000061882846FFF753FFE1882846FFF742FF17
:102C100017E0208808280AD12389A28861882846DD
:102C2000FFF7FBFEE1882846FFF7EEFE09E0238967
:102C3000A28861882846FFF7A6FEE1882846FFF7AC
:102C400095FE70BD2DE9F04105460C460026012792
:102C5000608808B9022600E00026A088012801D17A
:102C6000022700E001272088A0B92389A288618873
:102C70002846FFF766FFE1882846FFF759FF2389BA
:102C80003A4631462846FFF712FFE1882846FFF70B
:102C900001FF13E02389A28861882846FFF707FF18
:102CA000E1882846FFF7F6FE23893A463146284652
:102CB000FFF747FFE1882846FFF73AFFBDE8F081BC
:102CC0000A884B881A438B881A43CB881A430B898E
:102CD0001A434B891A438B891A43A0F84420704742
:102CE0004FF6FF71818000210180C1804180017217
:102CF00070470021018041808180C1800181418134
:102D00008181C18170470021018041800121818042
:102D10000021C180018170470021018041808180B4
:102D2000C18001814181818170470000002C0140F8
:102D3000003401400004004000080040000C004046
:102D400021B1028842F00102028004E002884FF6BD
:102D5000FE731A400280704731B1B0F8442042F44B
:102D60000042A0F8442005E0B0F84420C2F30E026F
:102D7000A0F8442070471AB183890B43838102E095
:102D800083898B43838170478182704741EA0203C4
:102D9000A0F8483070471AB183890B43838102E061
:102DA00083898B438381704701894FF6F872114004
:102DB000018170470A46002101894FF68F7319403F
:102DC00011430181704730B504460D46294620461F
:102DD000FFF7F0FF208940F00700208130BD2DE98A
:102DE000F04104460D4616461F46602D06D13B466F
:102DF000012231462046FFF75AFE05E03B460122FC
:102E000031462046FFF79DFE29462046FFF7D2FFB8
:102E1000208940F007002081BDE8F08130B50C46E4
:102E200000210189C9B24FF6FF7505EA0325154354
:102E300025432943018130BD2DE9F04105460E4669
:102E400017469846002443463A4631462846FFF73F
:102E5000E5FF2C894FF6F870044044F007044FF664
:102E60008F70044044F070042C81BDE8F081F0B50F
:102E700004460D4616461F463B4632462946204626
:102E8000FFF7CCFF208940F480402081F0BD018510
:102E9000828270470A46002101884FF68F731940DD
:102EA000114301807047F0B50C4615461E460021BF
:102EB000002200230189028B038C4FF6F8773940FA
:102EC00021434FF6FC473A4040F201173A434FF690
:102ED000DD773B404FF6FF7707EA06172F433B436A
:102EE000018102830384F0BD0A460021018B4FF665
:102EF0008F7319401143018370470A460021018BEB
:102F000048F6FF7319404FF6FF7303EA0223194393
:102F1000018370470A460021818B4FF68F73194059
:102F20001143818370470A460021818B48F6FF7365
:102F300019404FF6FF7303EA022319438183704758
:102F400021B1028842F08002028004E002884FF63C
:102F50007F731A400280704721B1828842F00402D8
:102F6000828004E082884FF6FB731A4082807047AB
:102F700021B1828842F00802828004E082884FF604
:102F8000F7731A408280704721B1828842F00102B3
:102F9000828004E082884FF6FE731A408280704778
:102FA0000A460021018B4FF6F77319401143018344
:102FB00070470A460021018B4FF2FF7319404FF60C
:102FC000FF7303EA02231943018370470A46002175
:102FD000818B4FF6F77319401143818370470A467E
:102FE0000021818B4FF2FF7319404FF6FF7303EA04
:102FF00002231943818370470A460021018B4FF653
:10300000FB7319401143018370470A460021018B6D
:103010004FF6FF3319404FF6FF7303EA02231943BB
:10302000018370470A460021818B4FF6FB731940DC
:103030001143818370470A460021818B4FF6FF338D
:1030400019404FF6FF7303EA022319438183704747
:103050000A460021018B4FF67F731940114301830B
:1030600070470A460021018BC1F30E014FF6FF7332
:1030700003EA02231943018370470A460021818B2A
:103080004FF67F7319401143818370470A46002130
:10309000818BC1F30E014FF6FF7303EA022319433C
:1030A000818370470A460021018C4FF6FD73194059
:1030B0001143018470470A460021018C4FF6F773D3
:1030C00019401143018470470A460021018C4FF6D4
:1030D000DF7319404FF6FF7303EA021319430184AB
:1030E00070470A460021018C4FF67F7319404FF656
:1030F000FF7303EA02131943018470470A46002153
:10310000018C4FF6FF5319404FF6FF7303EA022379
:103110001943018470470A460021018C4FF2FF7366
:1031200019404FF6FF7303EA0223194301847047E5
:103130000A460021018C4DF6FF7319404FF6FF73CC
:1031400003EA023319430184704730B50023012498
:103150008C40A3B2048C9C430484048C02FA01F5D5
:10316000ADB22C43048430BD30B5002304248C4020
:10317000A3B2048C9C430484048C02FA01F5ADB222
:103180002C43048430BD70B503460020002418464B
:10319000183001258D40ACB21D8CA5431D8409B1AA
:1031A000082909D100EB6100056825F0700505606C
:1031B0000568154305600EE00D1FC5F34E05284454
:1031C000056825F4E045056005684FF6FF7606EAD8
:1031D00002263543056070BD21B1028842F002022B
:1031E000028004E002884FF6FD731A4002807047A7
:1031F00021B1028842F00402028004E002884FF606
:10320000FB731A400280704721B1828842F080022D
:10321000828004E082884FF67F731A408280704774
:1032200002884FF6F7731A40028002880A43028030
:10323000704782884FF68F731A40828082880A43D3
:103240008280704702894FF6F8731A400281028922
:103250000A430281704702894FF67F731A40028148
:1032600002890A43028170478184704781857047D3
:10327000818670470187704781877047A0F84010AA
:10328000704702884FF6FF431A40028002880A43C3
:10329000028070470146888E70470146088F70474C
:1032A0000146888F70470146B1F8400070470146DB
:1032B000888C70470146088D704702460020138AAB
:1032C0000B400BB1012000E000207047CA4302828E
:1032D000704730B50246002000230024158A05EA15
:1032E0000103958905EA010413B10CB1012000E046
:1032F000002030BDCA4302827047000010B504466A
:10330000FB48844209D101218803FFF79FF800217F
:103310004FF48040FFF79AF832E0F648844209D132
:1033200001214804FFF79FF800214FF40030FFF718
:103330009AF825E0F048844209D101218804FFF77A
:1033400092F800214FF48020FFF78DF818E0EB4849
:10335000844209D10121C804FFF785F800214FF408
:103360000020FFF780F80BE0E548844208D10121F6
:103370000805FFF778F800214FF48010FFF773F885
:1033800010BD2DE9F04786B005460E460024A24642
:1033900000BFA1460027B08900B100BF2F462C8A8C
:1033A0004CF6FF700440F08804432C82AC894EF642
:1033B000F3100440B08831890843718908430443FD
:1033C000AC81AC8A4FF6FF400440B0890443AC8224
:1033D00001A8FEF7B4FFC648874202D1DDF810A06D
:1033E00001E0DDF80CA0A88900F4004040B10AEB30
:1033F000CA0000EB0A1031684900B0FBF1F807E0A1
:103400000AEBCA0000EB0A1031688900B0FBF1F842
:103410006420B8FBF0F004012009642101FB10894D
:10342000A88900F4004040B1322000EBC900B0FB95
:10343000F1F000F00700044308E0322000EB09102F
:103440006421B0FBF1F000F00F0004432C8106B0C2
:10345000BDE8F0874FF41651016000218180C180E2
:1034600001810C21418100218181704710B5024604
:103470000020108A4FF2FF0318400B884C8823432A
:103480008C882343CC8823431843108210BD00212D
:10349000018041808180C180704721B1828942F4DE
:1034A0000052828104E082894DF6FF731A408281C6
:1034B0007047F0B50346002400260025002040F6A2
:1034C0006A17B94200D100BF1846C1F3421401F097
:1034D0001F06012707FA06F5012C01D10C3004E084
:1034E000022C01D1103000E014301AB107682F43CC
:1034F000076002E00768AF430760F0BD1AB1838A36
:103500000B43838202E0838A8B4383827047028A63
:103510004FF6F0731A400282028A0A430282704711
:1035200082894FF2FF731A40828182890A43828125
:10353000704721B1828942F00202828104E08289CF
:103540004FF6FD731A4082817047028A4FF6DF738F
:103550001A400282028A0A430282704721B1028A1B
:1035600042F48042028204E0028A4BF6FF731A4062
:1035700002827047C1F30802828070470146888842
:10358000C0F308007047818941F0010181817047D3
:10359000028BD2B20283028B42EA0122028370477D
:1035A000028B02F47F420283028B0A43028370473C
:1035B00021B1828A42F02002828204E0828A4FF6A0
:1035C000DF731A408282704721B1828A42F0100272
:1035D000828204E0828A4FF6EF731A40828270473B
:1035E00021B1828A42F00802828204E0828A4FF688
:1035F000F7731A408282704721B1828942F40042F7
:10360000828103E08289C2F30E028281704721B178
:10361000828A42F40062828204E0828A4FF2FF735F
:103620001A4082827047828A4FF6FB731A40828268
:10363000828A0A438282704721B1828A42F0020262
:10364000828204E0828A4FF6FD731A4082827047BC
:1036500002460020B1F5007F00D100BF13880B4067
:103660000BB1012000E00020704701F40072B2F5B8
:10367000007F00D100BFCA430280704770B5024688
:10368000002400230025002040F66A16B14200D134
:1036900000BFC1F3421501F01F03012606FA03F330
:1036A000012D02D19689334006E0022D02D1168AFF
:1036B000334001E0968A33400C12012606FA04F4E6
:1036C0001688344013B10CB1012000E0002070BD19
:1036D00010B50022002340F66A14A14200D100BFB9
:1036E0000A1201249440A3B2DC43048010BD000000
:1036F000003801400044004000480040004C0040B9
:1037000000500040704770477047704770477546DB
:1037100000F028F8AE4605006946534620F0070041
:10372000854618B020B5FEF7DBFABDE820404FF023
:1037300000064FF000074FF000084FF0000B21F09B
:103740000701AC46ACE8C009ACE8C009ACE8C00968
:10375000ACE8C0098D4670470446AFF300802046B0
:10376000FCF74DFD00487047D450002010B591EA99
:10377000030F48BF83F0004300F1EA81841A71EB24
:10378000030C05D2121943EB0C03001B61EB0C0177
:10379000DFF824E14FEA1154A4EB135C1EEA430F57
:1037A00018BF9EEA445F73D023EA0E03DCF1200EBB
:1037B00021EA045143F4801332D322FA0CFE10EBB9
:1037C0000E0023FA0CFE41EB0E01CCF1200E03FAA1
:1037D0000EFE10EB0E0051F10001B1F5801FCCF18F
:1037E000200E32D201EB045112FA0EF2BDE8104065
:1037F00058BF7047401C38BF5FEA420218BF70478D
:10380000002814BF20F0010041F100014FEA4103FC
:1038100013F5001F38BF7047A1F1C04100F08AB90D
:10382000012A43EB0302ACF1200CDCF11F0E32BF86
:103830004FF0000E23FA0CF310EB030041EB0451A0
:10384000B4EB115FD0D0A1EB045101F58011490810
:103850005FEA300001EB04510ED350F1000038BF95
:1038600012FA0EFE08D1BDE81040C9E7401C38BF6F
:103870005FEA4202CAD1C3E7BDE810404FEA410304
:1038800013F5001F38BF7047A1F1C04100F052B9D5
:103890009EEA445F08D011EA5E0FBDE8104004BF05
:1038A00001F0004100207047BDE8104070B500F005
:1038B000F3F800BF64FBBE3E0000E0FF4FEA115387
:1038C000A3F58063D3F11E03A8BFD3F1200C08DB5E
:1038D0004FF0004242EAC12252EA505232FA03F05B
:1038E000704709420BD4102BC4BF0020704703F56A
:1038F000787CBCF1FF3F05D04FF0FF3070474FF0B0
:103900000000704770B500F0C7F800BF49922480EE
:1039100000207047F0E710F0004248BF4042B0FA84
:1039200080F310FA03F10AD0C3F11D0303F580639D
:103930004FEA415002EB035202EBD12170474FF0A6
:1039400000007047DFF848C170B51CEA111E1EBFA9
:103950001CEA13159EEA0C0F95EA0C0F00F06F801D
:1039600081EA030423EA4C134EEAD47E21EA4C1187
:1039700041F4801143F48013AE44A1FB024CA0FB40
:103980000365AEF17F7E361955EB0C05A1FB034CA8
:103990004CF10003A0FB021C16EB0C06654153F131
:1039A0000003094218BF46F0010613F4007F0BD153
:1039B0004FEA03314FEA0530340341EA155140EA3A
:1039C00016506FF003020AE04FEAC3214FEAC52008
:1039D000F40241EA555140EA56506FF0020202EB00
:1039E0002E4201EB025585EACE710AD05FEA440C03
:1039F00018BF24F0004450F1000041F1000120EA1A
:103A0000D47040F2FE7C624500D270BDA84214BF63
:103A10004FF080444FF04044002E08BF0024BEF118
:103A2000806FA8BFA1F1C041BDE8704080F28280E4
:103A30004FF0000001F1C04101F0004170479EEAE3
:103A40000C0F0CEA131518BF95EA0C0F06D04FF0B7
:103A5000000081EA030E0EF0004170BD00F01CF87A
:103A60008900013E00F007B800F009B84FEA430CA6
:103A70005FEA5C5C08D081EA030100F05BB84FEAC2
:103A8000410C5FEA5C5CF6D14FF0000001497047E1
:103A90000000FF070000F87F0EF1020E2EF0030E6B
:103AA0005EF8046B364205D4012A43EB030515F595
:103AB000001F12D8012841EB010C1CF5001F0CD887
:103AC0000ED14FEAD17C15F5001F0CEB4C0C0CF11C
:103AD000020C08BF4CEBD37C04E04FF0080C01E073
:103AE0004FEAD37C0CEB4C0526FA05F606F00706E8
:103AF000B6F1040C06D20EEB860CBDE870404CF01B
:103B0000010C6047DFE80CF0090B02024FF00041A6
:103B10004FF00000A1F5002170BD194610460128A4
:103B200051EB010418BFD4F5001484BF002001F04C
:103B3000004170BD0808A0F500114FEA310170473F
:103B400010B591EA030F48BF83F000433FF516AE6E
:103B5000841A71EB030C07D212198CF0004C43EB62
:103B60000C03001B61EB0C01DFF8A4E14FEA1154D8
:103B7000A4EB135C1EEA430F18BF9EEA445F00F0FB
:103B8000B08023EA6E03524221EA0451C3EB6E0374
:103B900038BF5B1EDCF1200E25D322FA0CFE10EBA1
:103BA0000E0043FA0CFE41EB0E01CCF1200E03FA9D
:103BB0000EFE10EB0E0051F10001CCF1200E29D4C5
:103BC00012FA0EF201EB0451BDE8104058BF7047E5
:103BD000401C1CBFB2F1004F704700280CBF491CAD
:103BE00020F00100704712EB020E43EB030218BFF6
:103BF0004FF0010E4EEA4202ACF1200CDCF11E0E39
:103C000054D943FA0CFE10EB0E0051F1FF31CCF108
:103C10001E0ED5D50EF1010E12FA0EFE404141EBFB
:103C2000010101EB445C5FEA5C5C10D910EBDE70D3
:103C300001EB045138BFBEF1004FBDE8104018BF82
:103C4000704700280CBF491C20F00100704730D29B
:103C50004FEAD42C11F5001124F400641BD0B1FA02
:103C600081F20B3AA41AA41ED2F12003914030FA3B
:103C700003F31943904001EBCC71002C01EB04518C
:103C8000BDE81040A8BF704701F1C0414FF00000EF
:103C900001F000417047B0FA80F310FA03F100D14F
:103CA00010BDE41A173C4805C90AE4E701EB0451CA
:103CB00010BD491001EB0451BDE810404FEA30003F
:103CC00002E04FF0000170474A0008BF0042F8D000
:103CD000B2F5001F28BF704701F000414FF000000F
:103CE00070479EEA445F07D011EA5E0FBDE81040BE
:103CF00004BF002100207047BDE8104070B5FFF7F9
:103D0000CBFE00BF40DFF63E83F000411046704717
:103D10000000E0FF0000000000000000002F000095
:103D200000000700070000147F147F1400242A7F7E
:103D30002A120062640813230036495522500000FD
:103D40000503000000001C224100000041221C006D
:103D50000014083E08140008083E0808000000A0EF
:103D600060000008080808080000606000000020EB
:103D700010080402003E5149453E0000427F4000C9
:103D8000004261514946002141454B31001814124F
:103D90007F10002745454539003C4A49493000011C
:103DA0007109050300364949493600064949291E6B
:103DB00000003636000000005636000000081422CD
:103DC00041000014141414140000412214080002CD
:103DD0000151090600324959513E007C1211127CF2
:103DE000007F49494936003E41414122007F41411F
:103DF000221C007F49494941007F09090901003E11
:103E00004149497A007F0808087F0000417F41004E
:103E1000002040413F01007F08142241007F4040C4
:103E20004040007F020C027F007F0408107F003EAC
:103E30004141413E007F09090906003E4151215E92
:103E4000007F091929460046494949310001017F8F
:103E50000101003F4040403F001F2040201F003F25
:103E60004038403F006314081463000708700807D7
:103E700000615149454300007F41410000552A55EA
:103E80002A55000041417F00000402010204004065
:103E90004040404000000102040000205454547887
:103EA000007F4844443800384444442000384444A7
:103EB000487F00385454541800087E090102001845
:103EC000A4A4A47C007F080404780000447D400082
:103ED000004080847D00007F102844000000417F66
:103EE0004000007C04180478007C08040478003842
:103EF0004444443800FC242424180018242418FCCA
:103F0000007C0804040800485454542000043F4432
:103F10004020003C4040207C001C2040201C003CF5
:103F20004030403C004428102844001CA0A0A07C45
:103F3000004464544C44141414141414000000007D
:103F4000000000000000000000000000000000F879
:103F500000000000000000333000000000100C06DC
:103F6000100C0600000000000000000040C0784077
:103F7000C0784000043F04043F040400007088FC43
:103F800008300000001820FF211E0000F008F0009B
:103F9000E018000000211C031E211E0000F008880C
:103FA000700000001E2123241927211010160E0076
:103FB000000000000000000000000000000000E021
:103FC0001804020000000007182040000002041836
:103FD000E00000000040201807000000404080F092
:103FE000804040000202010F01020200000000F0C8
:103FF000000000000101011F01010100000000009C
:104000000000000080B07000000000000000000010
:104010000000000000010101010101010000000099
:104020000000000000303000000000000000000030
:1040300080601804006018060100000000E010080D
:104040000810E000000F102020100F00001010F8E2
:10405000000000000020203F202000000070080821
:1040600008887000003028242221300000300888A1
:10407000884830000018202020110E000000C020C9
:1040800010F8000000070424243F240000F80888EA
:10409000880808000019212020110E0000E0108877
:1040A00088180000000F112020110E0000380808A9
:1040B000C83808000000003F0000000000708808B9
:1040C00008887000001C222121221C0000E010083A
:1040D0000810E0000000312222110F00000000C093
:1040E000C000000000000030300000000000008030
:1040F0000000000000008060000000000000804020
:104100002010080000010204081020004040404038
:10411000404040000404040404040400000810208B
:1041200040800000002010080402010000704808D0
:104130000808F0000000003036010000C030C82838
:10414000E810E0000718272423140B000000C038F3
:10415000E0000000203C23020227382008F888886D
:1041600088700000203F202020110E00C030080879
:1041700008083800071820202010080008F8080850
:104180000810E000203F202020100F0008F8888849
:10419000E8081000203F20202320180008F8888815
:1041A000E8081000203F200003000000C03008088D
:1041B0000838000007182020221E020008F8080016
:1041C0000008F808203F210101213F20000808F8DD
:1041D000080800000020203F202000000000080800
:1041E000F8080800C08080807F00000008F888C0C0
:1041F00028180800203F20012638200008F8080071
:1042000000000000203F20202020300008F8F800A7
:10421000F8F80800203F003F003F200008F830C0B9
:104220000008F808203F200007183F00E0100808A9
:104230000810E0000F10202020100F0008F80808D8
:104240000808F000203F210101010000E0100808EB
:104250000810E0000F18242438504F0008F8888810
:1042600088887000203F2000030C302000708808F0
:10427000080838000038202121221C00180808F8FE
:10428000080818000000203F2000000008F808007F
:104290000008F808001F202020201F000878880050
:1042A00000C83808000007380E010000F80800F8C0
:1042B0000008F800033C0700073C0300081868806A
:1042C0008068180820302C03032C30200838C800E0
:1042D000C83808000000203F20000000100808082F
:1042E000C83808002038262120201800000000FED1
:1042F000020202000000007F40404000000C30C07D
:1043000000000000000000010638C00000020202A8
:10431000FE000000004040407F000000000004025A
:104320000202040000000000000000000000000085
:104330000000000080808080808080800002020475
:10434000000000000000000000000000000080806D
:10435000808000000019242222223F2008F80080DB
:1043600080000000003F112020110E00000000809E
:1043700080800000000E112020201100000000802D
:104380008088F800000E112020103F20000080805F
:1043900080800000001F222222221300008080F073
:1043A000888888180020203F20200000000080809E
:1043B00080808000006B94949493600008F80080E3
:1043C00080800000203F210000203F20008098983E
:1043D000000000000020203F20200000000000809E
:1043E0009898000000C08080807F000008F80000DE
:1043F00080808000203F24022D302000000808F833
:10440000000000000020203F2020000080808080ED
:1044100080808000203F20003F20003F808000807F
:1044200080800000203F210000203F20000080808D
:1044300080800000001F202020201F00808000803E
:104440008000000080FFA12020110E0000000080ED
:1044500080808000000E112020A0FF8080808000DE
:104460008080800020203F2120000100000080800B
:10447000808080000033242424241900008080E000
:10448000808000000000001F2020000080800000CD
:1044900000808000001F202020103F2080808000AE
:1044A0000080808000010E300806010080800080BE
:1044B000008080800F300C030C300F0000808000E3
:1044C000808080000020312E0E312000808080000E
:1044D0000080808080818E701806010000808080BE
:1044E000808080000021302C22213000000000005C
:1044F000807C020200000000003F404000000000FD
:10450000FF00000000000000FF0000000002027C2D
:10451000800000000040403F000000000006010154
:104520000202040400000000000000004C450008E6
:1045300000000020BC0100006C010008B845000824
:10454000BC0100207C550000C801000802141402C0
:1045500062016963101156312C56322C52652C4D74
:10456000752C20206D731D202020560A390529083E
:104570000921112DF1FFFFFF042954DA05643232BD
:104580005A0F04291032031AFB2C290429100A217E
:1045900002306904092230091280517CA24A0418B1
:1045A00000081C02030406070809293CD912193621
:0845B000693A25020406080027
:0400000508000131BD
:00000001FF
